{
  "_format": "hh-sol-artifact-1",
  "contractName": "CapTableRegistry",
  "sourceName": "contracts/capTable/CapTableRegistry.sol",
  "abi": [
    {
      "inputs": [],
      "stateMutability": "nonpayable",
      "type": "constructor"
    },
    {
      "anonymous": false,
      "inputs": [
        {
          "indexed": true,
          "internalType": "address",
          "name": "authenticatedAddress",
          "type": "address"
        }
      ],
      "name": "AuthenticatedPerson",
      "type": "event"
    },
    {
      "anonymous": false,
      "inputs": [
        {
          "indexed": true,
          "internalType": "address",
          "name": "capTableAddress",
          "type": "address"
        },
        {
          "indexed": true,
          "internalType": "string",
          "name": "id",
          "type": "string"
        }
      ],
      "name": "CapTableAdded",
      "type": "event"
    },
    {
      "anonymous": false,
      "inputs": [
        {
          "indexed": true,
          "internalType": "address",
          "name": "capTableAddress",
          "type": "address"
        },
        {
          "indexed": true,
          "internalType": "string",
          "name": "id",
          "type": "string"
        }
      ],
      "name": "CapTableRemoved",
      "type": "event"
    },
    {
      "anonymous": false,
      "inputs": [
        {
          "indexed": true,
          "internalType": "address",
          "name": "contractAddress",
          "type": "address"
        },
        {
          "indexed": true,
          "internalType": "address",
          "name": "owner",
          "type": "address"
        }
      ],
      "name": "ContractRevoked",
      "type": "event"
    },
    {
      "anonymous": false,
      "inputs": [
        {
          "indexed": true,
          "internalType": "address",
          "name": "contractAddress",
          "type": "address"
        },
        {
          "indexed": true,
          "internalType": "address",
          "name": "owner",
          "type": "address"
        }
      ],
      "name": "PersonAuthenticatedContract",
      "type": "event"
    },
    {
      "anonymous": false,
      "inputs": [
        {
          "indexed": true,
          "internalType": "bytes32",
          "name": "role",
          "type": "bytes32"
        },
        {
          "indexed": true,
          "internalType": "bytes32",
          "name": "previousAdminRole",
          "type": "bytes32"
        },
        {
          "indexed": true,
          "internalType": "bytes32",
          "name": "newAdminRole",
          "type": "bytes32"
        }
      ],
      "name": "RoleAdminChanged",
      "type": "event"
    },
    {
      "anonymous": false,
      "inputs": [
        {
          "indexed": true,
          "internalType": "bytes32",
          "name": "role",
          "type": "bytes32"
        },
        {
          "indexed": true,
          "internalType": "address",
          "name": "account",
          "type": "address"
        },
        {
          "indexed": true,
          "internalType": "address",
          "name": "sender",
          "type": "address"
        }
      ],
      "name": "RoleGranted",
      "type": "event"
    },
    {
      "anonymous": false,
      "inputs": [
        {
          "indexed": true,
          "internalType": "bytes32",
          "name": "role",
          "type": "bytes32"
        },
        {
          "indexed": true,
          "internalType": "address",
          "name": "account",
          "type": "address"
        },
        {
          "indexed": true,
          "internalType": "address",
          "name": "sender",
          "type": "address"
        }
      ],
      "name": "RoleRevoked",
      "type": "event"
    },
    {
      "inputs": [],
      "name": "DEFAULT_ADMIN_ROLE",
      "outputs": [
        {
          "internalType": "bytes32",
          "name": "",
          "type": "bytes32"
        }
      ],
      "stateMutability": "view",
      "type": "function"
    },
    {
      "inputs": [],
      "name": "OPERATOR_ROLE",
      "outputs": [
        {
          "internalType": "bytes32",
          "name": "",
          "type": "bytes32"
        }
      ],
      "stateMutability": "view",
      "type": "function"
    },
    {
      "inputs": [
        {
          "internalType": "address",
          "name": "adr",
          "type": "address"
        },
        {
          "internalType": "string",
          "name": "id",
          "type": "string"
        }
      ],
      "name": "addCapTable",
      "outputs": [],
      "stateMutability": "nonpayable",
      "type": "function"
    },
    {
      "inputs": [
        {
          "internalType": "address",
          "name": "_operatorAddress",
          "type": "address"
        },
        {
          "internalType": "string",
          "name": "_operatorName",
          "type": "string"
        }
      ],
      "name": "authenticateOperator",
      "outputs": [],
      "stateMutability": "nonpayable",
      "type": "function"
    },
    {
      "inputs": [
        {
          "internalType": "address",
          "name": "_operatorAddress",
          "type": "address"
        },
        {
          "internalType": "string",
          "name": "_operatorName",
          "type": "string"
        },
        {
          "internalType": "string",
          "name": "_did",
          "type": "string"
        }
      ],
      "name": "authenticateOperatorWithDID",
      "outputs": [],
      "stateMutability": "nonpayable",
      "type": "function"
    },
    {
      "inputs": [
        {
          "internalType": "address",
          "name": "newAdmin",
          "type": "address"
        }
      ],
      "name": "changeAdmin",
      "outputs": [],
      "stateMutability": "nonpayable",
      "type": "function"
    },
    {
      "inputs": [
        {
          "internalType": "address",
          "name": "_operatorAddress",
          "type": "address"
        },
        {
          "internalType": "string",
          "name": "_operatorName",
          "type": "string"
        }
      ],
      "name": "changeOperatorName",
      "outputs": [],
      "stateMutability": "nonpayable",
      "type": "function"
    },
    {
      "inputs": [
        {
          "internalType": "address",
          "name": "_address",
          "type": "address"
        },
        {
          "internalType": "uint256",
          "name": "timeValid",
          "type": "uint256"
        }
      ],
      "name": "checkAuthenticated",
      "outputs": [
        {
          "internalType": "bool",
          "name": "",
          "type": "bool"
        }
      ],
      "stateMutability": "view",
      "type": "function"
    },
    {
      "inputs": [
        {
          "internalType": "address",
          "name": "_address",
          "type": "address"
        }
      ],
      "name": "checkAuthenticatedOnce",
      "outputs": [
        {
          "internalType": "bool",
          "name": "",
          "type": "bool"
        }
      ],
      "stateMutability": "view",
      "type": "function"
    },
    {
      "inputs": [],
      "name": "getActiveCapTablesCount",
      "outputs": [
        {
          "internalType": "uint256",
          "name": "activeCapTables",
          "type": "uint256"
        }
      ],
      "stateMutability": "view",
      "type": "function"
    },
    {
      "inputs": [
        {
          "internalType": "string",
          "name": "id",
          "type": "string"
        }
      ],
      "name": "getAddress",
      "outputs": [
        {
          "internalType": "address",
          "name": "capTableAddress",
          "type": "address"
        }
      ],
      "stateMutability": "view",
      "type": "function"
    },
    {
      "inputs": [],
      "name": "getCapTableList",
      "outputs": [
        {
          "internalType": "address[]",
          "name": "capTableList",
          "type": "address[]"
        }
      ],
      "stateMutability": "view",
      "type": "function"
    },
    {
      "inputs": [
        {
          "internalType": "address",
          "name": "adr",
          "type": "address"
        }
      ],
      "name": "getId",
      "outputs": [
        {
          "internalType": "string",
          "name": "id",
          "type": "string"
        }
      ],
      "stateMutability": "view",
      "type": "function"
    },
    {
      "inputs": [
        {
          "internalType": "address",
          "name": "adr",
          "type": "address"
        }
      ],
      "name": "getOperatorDID",
      "outputs": [
        {
          "internalType": "string",
          "name": "",
          "type": "string"
        }
      ],
      "stateMutability": "view",
      "type": "function"
    },
    {
      "inputs": [
        {
          "internalType": "address",
          "name": "adr",
          "type": "address"
        }
      ],
      "name": "getOperatorForCapTable",
      "outputs": [
        {
          "internalType": "address",
          "name": "",
          "type": "address"
        }
      ],
      "stateMutability": "view",
      "type": "function"
    },
    {
      "inputs": [
        {
          "internalType": "address",
          "name": "_operatorAddress",
          "type": "address"
        }
      ],
      "name": "getOperatorName",
      "outputs": [
        {
          "internalType": "string",
          "name": "",
          "type": "string"
        }
      ],
      "stateMutability": "view",
      "type": "function"
    },
    {
      "inputs": [
        {
          "internalType": "address",
          "name": "_address",
          "type": "address"
        }
      ],
      "name": "getOperatorOf",
      "outputs": [
        {
          "internalType": "address",
          "name": "",
          "type": "address"
        }
      ],
      "stateMutability": "view",
      "type": "function"
    },
    {
      "inputs": [
        {
          "internalType": "bytes32",
          "name": "role",
          "type": "bytes32"
        }
      ],
      "name": "getRoleAdmin",
      "outputs": [
        {
          "internalType": "bytes32",
          "name": "",
          "type": "bytes32"
        }
      ],
      "stateMutability": "view",
      "type": "function"
    },
    {
      "inputs": [
        {
          "internalType": "address",
          "name": "adr",
          "type": "address"
        }
      ],
      "name": "getStatus",
      "outputs": [
        {
          "internalType": "uint256",
          "name": "status",
          "type": "uint256"
        }
      ],
      "stateMutability": "view",
      "type": "function"
    },
    {
      "inputs": [
        {
          "internalType": "bytes32",
          "name": "role",
          "type": "bytes32"
        },
        {
          "internalType": "address",
          "name": "account",
          "type": "address"
        }
      ],
      "name": "grantRole",
      "outputs": [],
      "stateMutability": "nonpayable",
      "type": "function"
    },
    {
      "inputs": [
        {
          "internalType": "bytes32",
          "name": "role",
          "type": "bytes32"
        },
        {
          "internalType": "address",
          "name": "account",
          "type": "address"
        }
      ],
      "name": "hasRole",
      "outputs": [
        {
          "internalType": "bool",
          "name": "",
          "type": "bool"
        }
      ],
      "stateMutability": "view",
      "type": "function"
    },
    {
      "inputs": [
        {
          "internalType": "address",
          "name": "adr",
          "type": "address"
        }
      ],
      "name": "removeCapTable",
      "outputs": [],
      "stateMutability": "nonpayable",
      "type": "function"
    },
    {
      "inputs": [
        {
          "internalType": "bytes32",
          "name": "role",
          "type": "bytes32"
        },
        {
          "internalType": "address",
          "name": "account",
          "type": "address"
        }
      ],
      "name": "renounceRole",
      "outputs": [],
      "stateMutability": "nonpayable",
      "type": "function"
    },
    {
      "inputs": [
        {
          "internalType": "address",
          "name": "_address",
          "type": "address"
        }
      ],
      "name": "revokeAuthenticationContract",
      "outputs": [],
      "stateMutability": "nonpayable",
      "type": "function"
    },
    {
      "inputs": [
        {
          "internalType": "address",
          "name": "_address",
          "type": "address"
        }
      ],
      "name": "revokeAuthenticationPerson",
      "outputs": [],
      "stateMutability": "nonpayable",
      "type": "function"
    },
    {
      "inputs": [
        {
          "internalType": "address",
          "name": "operator",
          "type": "address"
        }
      ],
      "name": "revokeOperator",
      "outputs": [],
      "stateMutability": "nonpayable",
      "type": "function"
    },
    {
      "inputs": [
        {
          "internalType": "bytes32",
          "name": "role",
          "type": "bytes32"
        },
        {
          "internalType": "address",
          "name": "account",
          "type": "address"
        }
      ],
      "name": "revokeRole",
      "outputs": [],
      "stateMutability": "nonpayable",
      "type": "function"
    },
    {
      "inputs": [
        {
          "internalType": "address",
          "name": "_address",
          "type": "address"
        }
      ],
      "name": "setAuthenticatedContract",
      "outputs": [],
      "stateMutability": "nonpayable",
      "type": "function"
    },
    {
      "inputs": [
        {
          "internalType": "address",
          "name": "_address",
          "type": "address"
        }
      ],
      "name": "setAuthenticatedPerson",
      "outputs": [],
      "stateMutability": "nonpayable",
      "type": "function"
    },
    {
      "inputs": [
        {
          "internalType": "bytes4",
          "name": "interfaceId",
          "type": "bytes4"
        }
      ],
      "name": "supportsInterface",
      "outputs": [
        {
          "internalType": "bool",
          "name": "",
          "type": "bool"
        }
      ],
      "stateMutability": "view",
      "type": "function"
    }
  ],
  "bytecode": "0x608060405234801561001057600080fd5b5061001c60003361004b565b6100467f97667070c54ef182b0f5858b034beac1b6f3089aa2d3188bb1e8929f4fa9b9293361004b565b6100ea565b6000828152602081815260408083206001600160a01b038516845290915290205460ff166100e6576000828152602081815260408083206001600160a01b03851684529091529020805460ff191660011790556100a53390565b6001600160a01b0316816001600160a01b0316837f2f8788117e7eff1d82e926ec794901d17c78024a50270940304540a733656f0d60405160405180910390a45b5050565b611ca780620000fa6000396000f3fe608060405234801561001057600080fd5b506004361061016a5760003560e01c806301ffc9a71461016f5780630e77f734146101975780631302cd52146101b75780631a24cd8f146101cc578063248a9ca3146101df578063265967b4146102005780632f2ff15d1461021357806330ccebb51461022657806336568abe1461024f57806359fa131b146102625780635c7c363b1461028d57806365f68c89146102a05780636ceb121c146102b3578063757fa2a5146102c85780637f7fe058146102d05780638938119e146102fc5780638f2839701461030f57806391d148541461032257806391e6afa714610335578063936d76e314610348578063a0e0ce3d1461035b578063a217fddf1461036e578063b3cf6e5214610376578063bf40fac114610389578063d547741f1461039c578063e32313ab146103af578063f1801c99146103c2578063f4f3d37b146103d5578063f5b541a6146103e8578063fad8b32a146103fd575b600080fd5b61018261017d36600461164d565b610410565b60405190151581526020015b60405180910390f35b6101aa6101a5366004611693565b610447565b60405161018e91906116d2565b6101ca6101c536600461174d565b610521565b005b6101ca6101da36600461174d565b610562565b6101f26101ed36600461179f565b6107f8565b60405190815260200161018e565b6101ca61020e366004611693565b61080d565b6101ca6102213660046117b8565b6108b9565b6101f2610234366004611693565b6001600160a01b031660009081526008602052604090205490565b6101ca61025d3660046117b8565b6108d5565b610275610270366004611693565b610953565b6040516001600160a01b03909116815260200161018e565b6101ca61029b366004611693565b61099c565b6101aa6102ae366004611693565b610ac7565b6102bb610aee565b60405161018e91906117e4565b6005546101f2565b6102756102de366004611693565b6001600160a01b039081166000908152600160205260409020541690565b6101ca61030a366004611693565b610b50565b6101ca61031d366004611693565b610c9e565b6101826103303660046117b8565b610cb7565b6101ca610343366004611693565b610ce0565b6101ca610356366004611831565b610e15565b6101aa610369366004611693565b610e95565b6101f2600081565b6101ca61038436600461174d565b610ebc565b6102756103973660046118b1565b610ef1565b6101ca6103aa3660046117b8565b610f26565b6101ca6103bd366004611693565b610f42565b6101826103d0366004611693565b6111b8565b6101826103e33660046118f2565b61123b565b6101f2600080516020611c5283398151915281565b6101ca61040b366004611693565b61133c565b60006001600160e01b03198216637965db0b60e01b148061044157506301ffc9a760e01b6001600160e01b03198316145b92915050565b6060610461600080516020611c5283398151915283610cb7565b61047a5760405180602001604052806000815250610441565b6001600160a01b0382166000908152600a60205260409020805461049d9061191c565b80601f01602080910402602001604051908101604052809291908181526020018280546104c99061191c565b80156105165780601f106104eb57610100808354040283529160200191610516565b820191906000526020600020905b8154815290600101906020018083116104f957829003601f168201915b505050505092915050565b6001600160a01b03831660009081526003602052604090206105448284836119cf565b5061055d600080516020611c52833981519152846108b9565b505050565b600080516020611c5283398151915261057a81611354565b60006001600160a01b031660078484604051610597929190611a88565b908152604051908190036020019020546001600160a01b0316146105fa5760405162461bcd60e51b8152602060048201526015602482015274696420697320616c6c726561647920696e2075736560581b60448201526064015b60405180910390fd5b6001600160a01b0384166106505760405162461bcd60e51b815260206004820152601e60248201527f616464726573732063616e6e6f74206265207a65726f2061646472657373000060448201526064016105f1565b6001600160a01b038416600090815260066020526040812080546106739061191c565b1591508190506106c25760405162461bcd60e51b815260206004820152601a6024820152796164647265737320697320616c6c726561647920696e2075736560301b60448201526064016105f1565b600480546001810182556000919091527f8a35acfbc15ff81a39ae7d344fd709f28e8600b4aa8c65c6b64bfe7fe36bd19b0180546001600160a01b0319166001600160a01b03871617905560405185906007906107229087908790611a88565b908152604080516020928190038301902080546001600160a01b0319166001600160a01b0394851617905591871660009081526006909152206107668486836119cf565b506005805460010190556001600160a01b038516600090815260096020908152604080832080546001600160a01b0319163317905560089091529081902060029055516107b69085908590611a88565b604051908190038120906001600160a01b038716907f1f680ae2258d5672c8d8f3f2e4e5d4a4ee688f56e74c9ee8ef327c3d1205247390600090a35050505050565b60009081526020819052604090206001015490565b6001600160a01b0381811660009081526001602052604090205416331461089c5760405162461bcd60e51b815260206004820152603e60248201527f4f6e6c7920746865206f70657261746f7220746861742061757468656e74696360448201527f617465642074686520616464726573732063616e207265766f6b65206974000060648201526084016105f1565b6001600160a01b0316600090815260016020819052604082200155565b6108c2826107f8565b6108cb81611354565b61055d838361135e565b6001600160a01b03811633146109455760405162461bcd60e51b815260206004820152602f60248201527f416363657373436f6e74726f6c3a2063616e206f6e6c792072656e6f756e636560448201526e103937b632b9903337b91039b2b63360891b60648201526084016105f1565b61094f82826113e2565b5050565b6001600160a01b03808216600090815260096020526040812054909116610988600080516020611c5283398151915282610cb7565b610993576000610995565b805b9392505050565b3360009081526001602081905260409091200154610a085760405162461bcd60e51b8152602060048201526024808201527f4d73672e73656e646572206e6565647320746f2062652061757468656e746963604482015263185d195960e21b60648201526084016105f1565b6001600160a01b038181166000908152600260205260409020541615610a705760405162461bcd60e51b815260206004820152601e60248201527f436f6e747261637420616c72656164792061757468656e74696361746564000060448201526064016105f1565b6001600160a01b03811660008181526002602052604080822080546001600160a01b0319163390811790915590519092917f6923f8bdded817154d389a68dd1653189da4bb64316742f2e8715f5666fe765291a350565b6001600160a01b038116600090815260066020526040902080546060919061049d9061191c565b60606004805480602002602001604051908101604052809291908181526020018280548015610b4657602002820191906000526020600020905b81546001600160a01b03168152600190910190602001808311610b28575b5050505050905090565b600080516020611c52833981519152610b6881611354565b6001600160a01b038281166000908152600160205260409020541615610c26576001600160a01b03828116600090815260016020526040902054163314610c265760405162461bcd60e51b815260206004820152604660248201527f41206e6577206f70657261746f722063616e206e6f742061757468656e74696360448201527f61746520612077616c6c6574206f776e656420627920616e6f74686572206f7060648201526532b930ba37b960d11b608482015260a4016105f1565b6040805180820182523381524260208083019182526001600160a01b038681166000818152600193849052868120955186546001600160a01b03191693169290921785559251939091019290925591517fa9586a145b7f42b11f0f9c50b278e7859233b30d9908848bc7c43e3c3a6895c29190a25050565b610ca96000826108b9565b610cb4600033610f26565b50565b6000918252602082815260408084206001600160a01b0393909316845291905290205460ff1690565b6001600160a01b03808216600090815260026020908152604080832054841680845260019092529091205490911633821480610d2457506001600160a01b03811633145b610da85760405162461bcd60e51b815260206004820152604960248201527f4f6e6c7920746865206f776e6572206f662074686520636f6e7472616374206f60448201527f722069742773206f70657261746f722063616e207265766f6b65206175746865606482015268373a34b1b0ba34b7b760b91b608482015260a4016105f1565b6001600160a01b038084166000818152600260205260408082205490519316927f23dd6441bb4f9d75ec0b57c0dcc3825318a042cb2b024bb8c89dfaf77dbe0e5a9190a350506001600160a01b0316600090815260026020526040902080546001600160a01b0319169055565b600080516020611c52833981519152610e2d81611354565b6001600160a01b0386166000908152600360205260409020610e508587836119cf565b50610e69600080516020611c52833981519152876108b9565b6001600160a01b0386166000908152600a60205260409020610e8c8385836119cf565b50505050505050565b6001600160a01b038116600090815260036020526040902080546060919061049d9061191c565b6000610ec781611354565b6001600160a01b0384166000908152600360205260409020610eea8385836119cf565b5050505050565b600060078383604051610f05929190611a88565b908152604051908190036020019020546001600160a01b0316905092915050565b610f2f826107f8565b610f3881611354565b61055d83836113e2565b600080516020611c52833981519152610f5a81611354565b6001600160a01b03821660009081526006602052604081208054610f7d9061191c565b80601f0160208091040260200160405190810160405280929190818152602001828054610fa99061191c565b8015610ff65780601f10610fcb57610100808354040283529160200191610ff6565b820191906000526020600020905b815481529060010190602001808311610fd957829003601f168201915b5050505050905060006001600160a01b03166007826040516110189190611a98565b908152604051908190036020019020546001600160a01b03160361107c5760405162461bcd60e51b815260206004820152601b60248201527a1b9bc81859191c995cdcc81c9959da5cdd195c9959081bdb881a59602a1b60448201526064016105f1565b80511580156110cb5760405162461bcd60e51b815260206004820152601b60248201527a6e6f2069642072656769737465726564206f6e206164647265737360281b60448201526064016105f1565b60006007836040516110dd9190611a98565b908152604080516020928190038301812080546001600160a01b0319166001600160a01b0395861617905582810182526000808252938816845260069092529091209061112a9082611ab4565b50600580546000190190556001600160a01b038416600090815260096020908152604080832080546001600160a01b03191690556008909152908190206004905551611177908390611a98565b604051908190038120906001600160a01b038616907f354a20d8f57c2c26bc5615304de4d496a4b210244ad6f04f55f67e035acc904290600090a350505050565b6000806111d3600080516020611c5283398151915284610cb7565b806111e457506111e4600084610cb7565b6001600160a01b03848116600081815260026020908152604080832054600192839052922001549394509091161515911515901582806112215750815b806112295750835b806112315750805b9695505050505050565b6000611255600080516020611c5283398151915284610cb7565b806112665750611266600084610cb7565b1561127357506001610441565b6001600160a01b0383811660009081526002602052604090205416156112cd576001600160a01b0380841660009081526002602090815260408083205490931682526001908190529190200154156112cd57506001610441565b6001600160a01b0383166000908152600160208190526040909120015415611333576001600160a01b038316600090815260016020819052604082200154906113168483611b83565b90506000808311801561132857508142105b935061044192505050565b50600092915050565b610cb4600080516020611c5283398151915282610f26565b610cb48133611447565b6113688282610cb7565b61094f576000828152602081815260408083206001600160a01b03851684529091529020805460ff1916600117905561139e3390565b6001600160a01b0316816001600160a01b0316837f2f8788117e7eff1d82e926ec794901d17c78024a50270940304540a733656f0d60405160405180910390a45050565b6113ec8282610cb7565b1561094f576000828152602081815260408083206001600160a01b0385168085529252808320805460ff1916905551339285917ff6391f5c32d9c69d2a47ea670b442974b53935d1edc7fd64eb21e047a839171b9190a45050565b6114518282610cb7565b61094f5761145e816114a0565b6114698360206114b2565b60405160200161147a929190611b96565b60408051601f198184030181529082905262461bcd60e51b82526105f1916004016116d2565b60606104416001600160a01b03831660145b606060006114c1836002611c05565b6114cc906002611b83565b6001600160401b038111156114e3576114e3611956565b6040519080825280601f01601f19166020018201604052801561150d576020820181803683370190505b509050600360fc1b8160008151811061152857611528611c24565b60200101906001600160f81b031916908160001a905350600f60fb1b8160018151811061155757611557611c24565b60200101906001600160f81b031916908160001a905350600061157b846002611c05565b611586906001611b83565b90505b60018111156115fe576f181899199a1a9b1b9c1cb0b131b232b360811b85600f16601081106115ba576115ba611c24565b1a60f81b8282815181106115d0576115d0611c24565b60200101906001600160f81b031916908160001a90535060049490941c936115f781611c3a565b9050611589565b5083156109955760405162461bcd60e51b815260206004820181905260248201527f537472696e67733a20686578206c656e67746820696e73756666696369656e7460448201526064016105f1565b60006020828403121561165f57600080fd5b81356001600160e01b03198116811461099557600080fd5b80356001600160a01b038116811461168e57600080fd5b919050565b6000602082840312156116a557600080fd5b61099582611677565b60005b838110156116c95781810151838201526020016116b1565b50506000910152565b60208152600082518060208401526116f18160408501602087016116ae565b601f01601f19169190910160400192915050565b60008083601f84011261171757600080fd5b5081356001600160401b0381111561172e57600080fd5b60208301915083602082850101111561174657600080fd5b9250929050565b60008060006040848603121561176257600080fd5b61176b84611677565b925060208401356001600160401b0381111561178657600080fd5b61179286828701611705565b9497909650939450505050565b6000602082840312156117b157600080fd5b5035919050565b600080604083850312156117cb57600080fd5b823591506117db60208401611677565b90509250929050565b6020808252825182820181905260009190848201906040850190845b818110156118255783516001600160a01b031683529284019291840191600101611800565b50909695505050505050565b60008060008060006060868803121561184957600080fd5b61185286611677565b945060208601356001600160401b038082111561186e57600080fd5b61187a89838a01611705565b9096509450604088013591508082111561189357600080fd5b506118a088828901611705565b969995985093965092949392505050565b600080602083850312156118c457600080fd5b82356001600160401b038111156118da57600080fd5b6118e685828601611705565b90969095509350505050565b6000806040838503121561190557600080fd5b61190e83611677565b946020939093013593505050565b600181811c9082168061193057607f821691505b60208210810361195057634e487b7160e01b600052602260045260246000fd5b50919050565b634e487b7160e01b600052604160045260246000fd5b601f82111561055d57600081815260208120601f850160051c810160208610156119935750805b601f850160051c820191505b818110156119b25782815560010161199f565b505050505050565b600019600383901b1c191660019190911b1790565b6001600160401b038311156119e6576119e6611956565b6119fa836119f4835461191c565b8361196c565b6000601f841160018114611a285760008515611a165750838201355b611a2086826119ba565b845550610eea565b600083815260209020601f19861690835b82811015611a595786850135825560209485019460019092019101611a39565b5086821015611a765760001960f88860031b161c19848701351681555b505060018560011b0183555050505050565b8183823760009101908152919050565b60008251611aaa8184602087016116ae565b9190910192915050565b81516001600160401b03811115611acd57611acd611956565b611ae181611adb845461191c565b8461196c565b602080601f831160018114611b105760008415611afe5750858301515b611b0885826119ba565b8655506119b2565b600085815260208120601f198616915b82811015611b3f57888601518255948401946001909101908401611b20565b5085821015611b5d5787850151600019600388901b60f8161c191681555b5050505050600190811b01905550565b634e487b7160e01b600052601160045260246000fd5b8082018082111561044157610441611b6d565b76020b1b1b2b9b9a1b7b73a3937b61d1030b1b1b7bab73a1604d1b815260008351611bc88160178501602088016116ae565b7001034b99036b4b9b9b4b733903937b6329607d1b6017918401918201528351611bf98160288401602088016116ae565b01602801949350505050565b6000816000190483118215151615611c1f57611c1f611b6d565b500290565b634e487b7160e01b600052603260045260246000fd5b600081611c4957611c49611b6d565b50600019019056fe97667070c54ef182b0f5858b034beac1b6f3089aa2d3188bb1e8929f4fa9b929a26469706673582212209c0969a2e541138027f7f309636a3ae9f0679dd7603f4b5561221bb49bbe7d2b64736f6c63430008100033",
  "linkReferences": {},
  "deployedLinkReferences": {}
}